:020000040800F2
:10000000600900209D010008031C0008511B000826
:10001000011C0008D9050008CD20000800000000E0
:10002000000000000000000000000000691C000843
:10003000790A000800000000051C00086B1C00087D
:10004000B7010008B7010008B7010008B7010008B0
:10005000B7010008B7010008B7010008B7010008A0
:10006000B7010008B7010008B7010008B701000890
:10007000B7010008B7010008B7010008B701000880
:10008000B7010008B7010008B7010008B701000870
:10009000B7010008B7010008B7010008B701000860
:1000A000B7010008B7010008B7010008B701000850
:1000B000B7010008111D0008B7010008B7010008CA
:1000C000B7010008B7010008B7010008B701000830
:1000D000B7010008B7010008C1200008B7010008F7
:1000E000B7010008B7010008B7010008B701000810
:1000F000B7010008B7010008B7010008B701000800
:10010000B7010008B7010008B7010008B7010008EF
:10011000B7010008B7010008B7010008B7010008DF
:10012000B7010008B7010008B7010008B7010008CF
:10013000B7010008B7010008B7010008B7010008BF
:10014000B7010008B7010008B7010008B7010008AF
:10015000B7010008B7010008B7010008B70100089F
:10016000B7010008B7010008B7010008B70100088F
:10017000B7010008B7010008B7010008000000003F
:10018000B7010008B7010008DFF80CD000F012FA40
:1001900000480047152200086009002006488047F3
:1001A00006480047FEE7FEE7FEE7FEE7FEE7FEE75C
:1001B000FEE7FEE7FEE7FEE7011D000889010008F3
:1001C0002DE9F05F0546002092469B46884606468C
:1001D000814640241BE0284641464746224600F01F
:1001E000F3F853465A46C01A914110D311461846A7
:1001F000224600F0DAF82D1A67EB01084F46224636
:100200000120002100F0D1F817EB00094E41201E1B
:10021000A4F10104DFDC484631462A464346BDE8E6
:10022000F09FD2B201E000F8012B491EFBD27047CB
:100230000022F6E710B513460A4604461946FFF7B2
:10024000F0FF204610BD2DE9FE4F81EA030404F0C3
:10025000004421F0004100944FF0000B23F00043D4
:1002600050EA01045ED052EA03045BD0C3F30A549F
:10027000C1F30A552C44A4F2F3340194A0FB0254B8
:10028000C1F3130141F48011C3F3130343F480134A
:1002900001FB024400FB034E840A970A44EA81549E
:1002A00047EA8357A4FB076802958D0A05FB07857B
:1002B0004FEA932C04FB0C542705029D4FEA065885
:1002C00047EA1637B5EB08056EEB070C870E920E62
:1002D00047EA811742EA8312A7FB0201B6EB0B0142
:1002E00064EB00042B0D43EA0C335E1844EB1C5006
:1002F000DA465146E7FB0201C5F313044FEA0B331C
:1003000043EA14534FEA0432019C43EA0603A4F182
:100310000C040294009CCDE900B400F0ABF803B0EB
:10032000BDE8F08F00200146F9E70EB5C10F80EA65
:10033000E0700844CA07002140F233438DE80E0004
:100340000A460B4600F096F803B000BD00F00042EC
:1003500030F000400AD0C10D01F56071C0F3160005
:1003600042EA0151C208400711437047002001468C
:10037000704701F0004330B421F0004150EA01021F
:1003800006D00A0DA2F56072C1F31301002A02DC47
:1003900030BC00207047440F44EAC104C100E0189B
:1003A00030BC00EBC25000F01FB8202A04DB203A1A
:1003B00000FA02F1002070479140C2F1200320FAB8
:1003C00003F3194390407047202A04DB203A21FAB6
:1003D00002F00021704721FA02F3D040C2F120025E
:1003E00091400843194670470029A8BF7047401C38
:1003F000490008BF20F00100704710B4B0FA80FC3B
:1004000000FA0CF050EA010404BF10BC704749B177
:10041000CCF1200421FA04F411FA0CF118BF0121E7
:1004200021430843A3EB0C01CB1D4FEA00614FEAC7
:10043000102042BF002010BC704700EBC350104496
:100440000029A4BF10BC7047401C490008BF20F021
:10045000010010BC704710B5141E73F1000408DAD7
:10046000401C41F1000192185B411A4301D120F078
:10047000010010BD2DE9F04D92469B4611B1B1FA35
:1004800081F202E0B0FA80F220329046FFF78DFF51
:1004900004460F4640EA0A0041EA0B0153465A4619
:1004A000084313D0114653EA010019D0C8F14002A5
:1004B0005046FFF789FF05460E46504659464246CC
:1004C000FFF773FF084305D0012004E020463946BA
:1004D000BDE8F08D0020054346EAE0762C43374323
:1004E0000A986305E40AA0EB08000022FD0A44EA2A
:1004F00047540A3002D500200146E9E701051019EA
:100500006941DDE9084500196941BDE8F04DA2E700
:100510002DE9F04D00231A461B1A8A4103DB002007
:100520000146BDE8F08DC1F30A52C1F3130141F455
:1005300080154FF0000BD10702D100186D41521EFB
:100540000027044640F2FF11384601EB620A3E469E
:100550008046024600204FF48011FFF735FFC21994
:100560007141BB1846EB0100B4EB030C75EB000CBA
:1005700004D3E41A65EB000517460E46241908F16A
:1005800001006D4180463428E3DDF91946EB060091
:10059000091BA84103D24FF0FF32134601E00022AD
:1005A00013461BEB070046EB0A51BDE8F04DFFF781
:1005B00052BF0000064C074D06E0E06840F0010322
:1005C00094E8070098471034AC42F6D3FFF7E0FDFB
:1005D000C4230008E4230008FEE700002DE9F041F1
:1005E00000222DED088B0B39F74C5AE0835C552B1C
:1005F00001D0521C55E0861800237578512D06D085
:10060000522D16D0532D26D0592D49D135E0002535
:1006100057196D1CC75D0A2D3B44DBB2F8DBB57A78
:100620009D423DD17388A380B388E380F388238102
:1006300036E0002557196D1CC75D0A2D3B44DBB21F
:10064000F8DBB57A9D422BD173886381B388A3818F
:10065000F388E38124E0002557196D1CC75D0A2D3E
:100660003B44DBB2F8DBB57A9D4219D17388238213
:10067000B3886382F388A38212E0002557196D1CAA
:10068000C75D0A2D3B44DBB2F8DBB57A9D4207D14A
:100690007388E382B3882383F38863833389A383D6
:1006A0000B328A42A2DDB4F90400FFF73EFE9FED53
:1006B000C7BB53EC1B2BFFF7C6FD9FEDC6AB53EC3E
:1006C0001A2BFFF7C0FD9FEDC58B53EC182BFFF7DE
:1006D000BAFDFFF74EFE09EE100A84ED089AB4F950
:1006E0000600FFF722FE53EC1B2BFFF7ACFD53EC8B
:1006F0001A2BFFF7A8FD53EC182BFFF7A4FDFFF70B
:1007000038FE09EE900AC4ED099AB4F90800FFF723
:100710000CFE53EC1B2BFFF796FD53EC1A2BFFF747
:1007200092FD53EC182BFFF78EFDFFF722FE0AEE29
:10073000100A84ED0AAAB4F90A00FFF7F6FD9FED4E
:10074000A9BB53EC1B2BFFF77EFD53EC182BFFF7D7
:100750007AFDFFF70EFEE062B4F90C00FFF7E5FD4D
:1007600053EC1B2BFFF76FFD53EC182BFFF76BFDC2
:10077000FFF7FFFD2063B4F90E00FFF7D6FD53EC41
:100780001B2BFFF760FD53EC182BFFF75CFDFFF709
:10079000F0FD6063B4F91000FFF7C7FD9FED93BB58
:1007A00053EC1B2BFFF74FFD53EC182BFFF74BFDC2
:1007B000FFF7DFFDA063B4F91200FFF7B6FD53ECBD
:1007C0001B2BFFF740FD53EC182BFFF73CFDFFF709
:1007D000D0FDE063B4F91400FFF7A7FD53EC1B2B29
:1007E000FFF731FD53EC182BFFF72DFDFFF7C1FD8F
:1007F0002064B4F91600FFF798FD53EC182BFFF7AF
:1008000022FDFFF7B6FD0BEE100A84ED11BAB4F924
:100810001800FFF78AFD53EC182BFFF714FDFFF7C4
:10082000A8FD0AEE900AC4ED12AAB4F91A00FFF767
:100830007CFD53EC182BFFF706FDFFF79AFD0BEE3E
:10084000900AC4ED13BAB4F91C00FFF76EFD53EC27
:10085000182BFFF7F8FCFFF78CFD5B4A03EE100A3C
:100860005C32111F84ED143A081FF0EE6B2AB0EED3
:100870006A2AF0EE4B1AB0EE4A1AF0EE690AB0EEB0
:10088000490A01F0A3FC61889FED5A1A642920D21D
:100890005948D4ED150A491C90ED000A89B2642923
:1008A00070EE201AC0ED001A90ED010AD4ED160A80
:1008B00070EE200AC0ED010A94ED172A90ED020AAD
:1008C00032EE412A30EE022A80ED022A618067D0A2
:1008D00077D394ED170A94ED158AD4ED168A30EE8D
:1008E000419A28EE080A08EEA80A09EE090A10EE55
:1008F000100AFFF72BFD41EC100B01F0F8FB51EC57
:10090000100BFFF736FD94ED0B0AD4ED0C0A0546EB
:1009100020EE000A00EEA00AD4ED0D0A00EEA00AB7
:1009200010EE100AFFF712FD41EC100B01F0DFFB97
:1009300051EC100BFFF71DFD2F49DFED304A0C3154
:1009400094ED180AD1ED022A002249EE242A22EE63
:10095000800AB5EEC00AF1EE10FA09D2B0EE620AD2
:10096000274EB0EEC00A10EE103AB34200DD01226D
:10097000B0EE620A84ED180AB5F17E5F02DA214B0F
:10098000984200DBF2B12078401CC0B220700328EE
:1009900040D3DFED1D1AB0EE612AF0EE612A41E08E
:1009A0009FED1A0AC1EE802AC0EE801AC0ED002A1F
:1009B000C2EE000AC0ED011AC0ED020A6520608097
:1009C00087E753E024E00000100000200000000052
:1009D00000003040000000A0999923400000000072
:1009E0000000003F0000000000409F4000000000A9
:1009F00000806640CDCC1C4138050020CDCCCC3DDC
:100A0000CDCCCC3D0000A041000000000000C84259
:100A100000202070D1ED001A91ED012A48EE241A31
:100A200008EEA42A134800EE102A2C3490ED024A56
:100A300090ED003AD0ED013A02EEA44A01EEA43A5C
:100A400042EE243AC1EC031AB8EEC06AB0EE491A7D
:100A500080EC033AF0EE680AB0EE480AD4EC034AA0
:100A6000BDEC088BBDE8F04101F06EBCBDEC088B1D
:100A7000BDE8F08150050020704772B6FEE72DE911
:100A8000F0410446876D00F05FF9064694F83500A2
:100A90000025022806D08020606584F834500120AB
:100AA000BDE8F0812068016821F01601016020682E
:100AB000416921F080014161206C08B9A06C20B12E
:100AC0002068016821F0080101602068016821F0B8
:100AD000010101600CE000F037F9801B052807D9FF
:100AE00020206065032084F8350084F83450D7E76F
:100AF00020680068C007EED194F85C103F20884061
:100B0000B860012084F8350084F834500020C7E72D
:100B100090F83510022903D08021416501207047EB
:100B2000052180F835100068016821F0010101609D
:100B30000020704770B5044600F006F90546601CB9
:100B400002D004480078044400F0FEF8401BA042A4
:100B5000FAD370BD000000202DE9F84FDFF8BCA1EA
:100B60000022012503264FF00F090AF1040BAAF118
:100B7000040E00BF0B6805FA02F42340A34270D1B3
:100B80000F7907F00307012F01D0022F16D18768D4
:100B90004FEA420806FA08FC27EA0C07D1F80CC015
:100BA0000CFA08FC4CEA070CC0F808C04768A743D9
:100BB0000C79C4F3001494403C4344600C79E44342
:100BC000A4070AD0C4684FEA420C06FA0CF7BC43EB
:100BD0008F6807FA0CF72743C7600C7904F0030409
:100BE000022C12D1D40800EB840CDCF8204057070B
:100BF000FF0E09FA07F824EA0804D1F8108008FA71
:100C000007F848EA0408CCF8208004684FEA420C50
:100C100006FA0CF7BC430F7907F0030707FA0CF745
:100C2000274307604C6814F4403F70D03C4C276861
:100C300047F480472760246822F0030704F48044C7
:100C40000094384C07EB040CDCF8084897074FEA8F
:100C5000177809FA08F7BC43334FB84202D100278E
:100C600024E054E0314FB84201D101271EE0304F5B
:100C7000B84201D1022719E02E4FB84201D1032713
:100C800014E02D4FB84201D104270FE02B4FB8429A
:100C900001D105270AE02A4FB84201D1062705E015
:100CA000284FB84201D1072700E0082707FA08F7C4
:100CB0002743CCF80878DAF800405746D1F804C04A
:100CC0009C435FEACC2C00D51C433C60DBF8004021
:100CD0005F46D1F804C09C435FEA8C2C00D51C43CE
:100CE0003C60DEF800407746D1F804C09C435FEAE0
:100CF0008C3C00D51C433C60084F083F3C68D1F851
:100D000004C09C435FEACC3C00D51C433C60521CB1
:100D1000102AFFF42FAFBDE8F88F0000083C014017
:100D2000443802400030014000000240000402400C
:100D300000080240000C0240001002400014024073
:100D400000180240001C0240014880687047000003
:100D500000000020024881680278114481607047D9
:100D6000000000200B4810B5016841F400710160DB
:100D7000016841F480610160016841F480710160A3
:100D8000032000F09BF80F2000F006F800F050F868
:100D9000002010BD003C024030B505461F4887B01A
:100DA0000024016841F002010160006806A900F01A
:100DB0000200009001A800F02DF90498A8B100F0FD
:100DC00049F940001649174AB0FBF1F11648491E8F
:100DD000026040F2E732C0E90324C0E901148461F3
:100DE00000F040FB040003D015E000F033F9E9E720
:100DF0000D4800F065FB04000DD11D2000F030F817
:100E0000102D07D2002229461D2000F037F8074890
:100E1000056000E0012407B0204630BD40380240A4
:100E200040420F0000040040F004002004000020B5
:100E30000A4808B5016841F480410160006800F487
:100E4000804000900548001F016841F0805101601A
:100E5000006800F08050009008BD00004438024057
:100E6000002809DB00F01F020121914040098000A9
:100E700000F1E020C0F8001170470000F0B40E4B04
:100E80001B680C46C3F30223C3F10705042D00D9E8
:100E90000425191D072901D2002300E0DB1E0126CD
:100EA00006FA05F1491E214099409E40761E1640E3
:100EB0003143F0BC01F00BB90CED00E0064900F045
:100EC000070208684FF6FF03184040EA0220034A71
:100ED00010430860704700000CED00E00000FA05C8
:100EE0002DE9F0470E46050065D0DFF81481D8F8EB
:100EF0000000F7B200F00700B04207D288F8007097
:100F0000D8F8000000F00700B04254D128683D4CEA
:100F1000810712D5400703D5206840F4E0502060D7
:100F20002878000703D5206840F4604020602068DE
:100F3000A96820F0F000084320602878C0072DD071
:100F4000304968680839012812D0022813D00328D4
:100F500011D00968890700292DDA216821F00301E1
:100F600001432160FFF7F0FE814641F2883A0EE02E
:100F700009688903EFE709688901ECE7FFF7E4FEF8
:100F8000A0EB0901514502D90320BDE8F087206894
:100F9000696800F00C00B0EB810FEFD1D8F80010B9
:100FA000404601F00701B14207D90770006800F020
:100FB0000700B04201D00120E7E72878400705D5B7
:100FC0002068E96820F4E050084320602878000792
:100FD00006D52068296920F4604040EAC1002060FD
:100FE00000F058F82168084AC1F30311515CC84069
:100FF0000649086006480068FFF7CEFE0020C4E7F7
:10100000003C024008380240AC2300080C000020DD
:10101000040000200F2202600C4A136803F003034F
:101020004360136803F0F0038360136803F4E05334
:10103000C36012684FF4E05303EAD202026104482D
:10104000006800F0070008607047000008380240A0
:10105000003C02400448054900680968044AC1F39D
:101060008221515CC84070470C00002008380240C3
:10107000BC2300080448054900680968044AC1F314
:101080004231515CC84070470C00002008380240D3
:10109000BC230008154810B5006810F00C02144875
:1010A00013D04110042A0FD0082A0ED10F4C241F50
:1010B0002268236802F03F025B0207D52068C0F374
:1010C0008810A0FB010106E0084610BD2168C1F3AD
:1010D0008811A1FB00010023FFF772F82168C1F31A
:1010E0000141491C4900B0FBF1F010BD0838024035
:1010F0000024F4002DE9F84F04006ED02078DFF8CA
:101100004C93C007A9F104054AD009F10400016815
:10111000C1F38101012908D00068C0F381000228D1
:101120000AD1D9F80000400206D52868800337D5D7
:1011300060680028E1D033E06068B0F5803F10D0EF
:10114000B0F5A02F286810D020F4803028602868DF
:1011500020F4802028606068A8B1FFF7F5FD0646FE
:101160000DE0286840F48030F4E740F480202860E7
:10117000F7E700BFFFF7E8FD801B642873D82868F5
:101180008003F7D50CE0FFF7DFFD064605E000BF62
:10119000FFF7DAFD801B6428F0D828688003F7D4B5
:1011A0002078DFF8AC8280074FF0000A3ED5A748D0
:1011B000001D016811F00C0F08D00068C0F3810019
:1011C00002280BD1D9F80000400207D42868800714
:1011D00016D5E068012800D112E033E1E068B8B12B
:1011E0000120C8F80000FFF7AFFD064605E000BF8C
:1011F000FFF7AAFD801B0228C0D828688007F7D512
:101200002868216920F0F80040EAC10028600DE05C
:10121000C8F800A0FFF798FD064604E0FFF794FD2C
:10122000801B02281FD828688007F7D42078000781
:1012300022D5864F87486169703771B101210160FD
:10124000FFF782FD064604E0FFF77EFD801B0228C3
:1012500009D838688007F7D50EE0C0F800A0FFF77E
:1012600073FD064605E082E0FFF76EFD801B022855
:101270007DD838688007F7D42078400768D5DFF834
:10128000CCB100270BF13C0BDBF80000C0000BD405
:10129000DBF8001041F08051CBF80010DBF80000C3
:1012A000012700F0805000906B4E3068C00510D4CC
:1012B000306840F480703060FFF746FD009005E034
:1012C000FFF742FD0099401A022850D83068C00547
:1012D000F6D55E4EA0686C3601280FD00528306820
:1012E00010D020F001003060306820F00400306041
:1012F000A068B8B1FFF728FD00900FE0306840F01B
:101300000100F4E740F004003060F7E7FFF71CFD50
:101310000099411A41F28830814266D830688007CE
:10132000F4D50EE0FFF710FD009007E0FFF70CFD8D
:101330000099411A41F28830814256D830688007BE
:10134000F4D42FB1DBF8001021F08051CBF800105D
:10135000A069C8B33D49091D0968C1F3810102298B
:101360004AD00228504607D0C8F8600000E03CE0B0
:10137000FFF7EAFC04463BE04746C8F86000FFF789
:10138000E3FC064605E000BFFFF7DEFC801B0228F9
:101390002BD828688001F7D4D4E907010843A16A53
:1013A0002E4A490802EB0141626A41EA8211084370
:1013B00094F82C1040EA0161C9F800100120386649
:1013C000FFF7C2FC044606E03EE000BFFFF7BCFCAE
:1013D000001B022809D828688001F7D534E000BF37
:1013E000FFF7B2FC001B022802D90320BDE8F88FEA
:1013F00028688001F4D427E00128F7D0D9F800004C
:10140000E26900F4800191421CD1226A00F03F01A0
:10141000914217D147F6C071626A0140B1EB821F59
:1014200010D1A26A4FF0FF3300F4403103EB5202B7
:10143000B1EB024F06D194F82C1000F07060B0EBC5
:10144000016F01D00120D1E70020CFE7043802402E
:1014500000004742800E4742007000400000FFFF3E
:101460007047704710B5040003D094F83D0010B1E8
:1014700007E0012010BD002084F83C00204600F069
:101480001EF8022084F83D00211D206800F046FC73
:10149000012084F8460084F83E0084F83F0084F878
:1014A000400084F8410084F8420084F8430084F846
:1014B000440084F8450084F83D00002010BD7047CA
:1014C00090F83D10012901D001207047022180F8D9
:1014D0003D100168CA6842F00102CA600068114903
:1014E000884214D0B0F1804F11D00F4988420ED0FD
:1014F0000E4988420BD00E49884208D00D498842D7
:1015000005D00D49884202D00C49884204D1816837
:1015100001F00701062903D0016841F001010160D3
:101520000020704700000140000400400008004017
:10153000000C004000040140004001400018004041
:1015400070472DE9F04104460068C66805694FF010
:101550000007A90713D5B10711D5F91E01610120B4
:101560002077206880698007204602D0FFF7E8FFD7
:1015700004E000F07EF8204600F07CF8277768074A
:1015800016D5700714D521686FF004000861022099
:1015900020772068806910F4407F204602D0FFF752
:1015A000CFFF04E000F065F8204600F063F82777ED
:1015B000280715D5300713D521686FF0080008619A
:1015C000042020772068C0698007204602D0FFF7FA
:1015D000B7FF04E000F04DF8204600F04BF8277705
:1015E000E80616D5F00614D521686FF010000861E2
:1015F000082020772068C06910F4407F204602D080
:10160000FFF79EFF04E000F034F8204600F032F8C7
:101610002777E80708D0F00706D021686FF00100AF
:101620000861204600F028F8280608D5300606D5BF
:1016300021686FF0800008612046FFF711FF6806FF
:1016400008D5700606D521686FF040000861204675
:1016500000F01CF8A8060AD5B00608D521686FF07E
:10166000200008612046BDE8F041FFF7FABEBDE862
:10167000F08170477047000000680349884201D13B
:10168000FFF768BB7047000000040040704718B5C2
:10169000034690F84200202801D0022018BD61B115
:1016A0005AB10120186300205863184600F0B4FCBA
:1016B0000028F3D1196B012901D0012018BD196848
:1016C0000A684968009119680C3151E8002F42F00E
:1016D000100241E80024002CF5D118BD10B50068B7
:1016E000064A904209D10648FEF778FFBDE810404F
:1016F000642203490348FFF7CABF10BD00440040FD
:1017000078000020A804002070470000F8B50168A8
:1017100004460868CA684B6910F00F0F4FF00005C7
:1017200059D003F0010602F49077374365D0C10722
:1017300005D0D10503D5616C41F001016164410719
:1017400005D5D90703D0616C41F0020161648107BE
:1017500005D5D90703D0616C41F00401616401072C
:1017600007D502F02001314303D0616C41F008013C
:101770006164616C00293AD0800604D5900602D5D8
:10178000204600F061FB20684069616CC0F3801066
:10179000090700D460B3204600F02FFB20684069A1
:1017A000400621D52068143050E8001F21F0400188
:1017B00040E80012002AF5D1E06BA8B1724901653A
:1017C000E06BFFF7A5F9002811D0E06B016D01B0C7
:1017D000BDE8F040084783060FD593060DD5204697
:1017E000BDE8F84000F030BB2046FFF78DFFF8BDA4
:1017F0002046FFF789FF6564F8BD266B2023012E84
:101800007ED1C6067CD5D6067AD508684868009091
:1018100048694FF0020640064DD5E26B10684068FB
:101820004FF480770004000C3AD0A18D814237D963
:10183000E085D069B8422DD020680C3050E8001FF8
:1018400021F4807140E80012002AF5D1206814309C
:1018500050E8001F21F0010140E80012002AF5D1F4
:101860002068143050E8001F21F0400140E80012C9
:10187000002AF5D184F84230256320680C3050E806
:10188000001F21F0100140E80012002AF5D1E06BA2
:10189000FFF7F5F86663A08DE18D401A81B206E08E
:1018A000A18D8142A8D1D069B842A5D166632046F6
:1018B000FFF714FFF8BDA08DE18D401A81B2E08DD5
:1018C0000028F7D00029F5D020680C3050E8002F10
:1018D00022F4907240E80027002FF5D120681430E0
:1018E00050E8002F22F0010240E80027002FF5D138
:1018F00084F84230256320680C3050E8002F00E067
:1019000006E022F0100240E80023002BF3D1CDE7DF
:1019100005062BD5150629D594F841002128C9D1F3
:10192000A068B0F5805F01D12069B0B1206A411C88
:101930002162216800784860E08C401E0004000CA1
:10194000E084B7D12068C16821F08001C1602068BF
:10195000C16841F04001C160F8BD206A0088C0F351
:1019600008004860206A801C2062E5E74006F3D545
:101970005006F1D5CA68204622F04002CA6084F8B9
:10198000413000F0E4F8F8BDED1D000870B504002A
:1019900004D094F84100002510B106E0012070BD8C
:1019A00084F84050204600F023F8242084F84100B9
:1019B0002068C16821F40051C160204600F0A6FAF9
:1019C0002068016921F4904101612068416921F09A
:1019D0002A0141612068C16841F40051C160656419
:1019E000202084F8410084F842006563002070BD27
:1019F000F0B587B0044614216846FEF719FC274F5E
:101A00002368002226490224032507262548BB42D5
:101A10001CD1234B14331F6847F010071F601B684D
:101A200003F0100305930B6843F001030B60096892
:101A300002AB01F0010105916902CDE9001483E8D0
:101A400064006946FFF788F807B0F0BD164FBB4247
:101A5000FAD1134B10331F6847F400371F601B681F
:101A600003F4003305930B6843F001030B6009682E
:101A700002AB01F0010105910C21CDE9001483E8CE
:101A800064006946FFF768F8002211462620FFF738
:101A9000F5F92620FFF7E4F9D6E700000010014031
:101AA00030380240000002400044004070472DE9F9
:101AB000F843044690F84100984616460D46202803
:101AC00002D00220BDE8F88385B17EB100206064B9
:101AD000212084F84100FFF737F9A6848146E68487
:101AE000A0682027B0F5805F02D003E00120E9E77D
:101AF000206910B12E4600250EE000260CE0802162
:101B0000204600F0A4FAA8B9C6B116F8010B216866
:101B10004860E08C401EE084E08C4B464FF00002B1
:101B2000CDF800800028EAD14FF04001204600F0B7
:101B30008EFA40B184F841700320C3E735F8020BF8
:101B4000C0F30800E3E784F841700020BAE770476B
:101B5000FEE700000D4808B5016841F0040101608E
:101B6000016801F004010091016841F08001016009
:101B7000016801F080010091016841F001010160FC
:101B8000006800F00100009008BD000030380240FD
:101B90000C4810B50A4901604FF4E1314160002161
:101BA00081600C22C160C0E904128161C161FFF74C
:101BB000EDFE002803D0BDE81040FEF75EBF10BD6B
:101BC00000100140600400200C4810B50A49016073
:101BD0004FF4E1314160002181600C22C160C0E915
:101BE00004128161C161FFF7D1FE002803D0BDE876
:101BF0001040FEF742BF10BD00440040A804002082
:101C0000FEE7FEE7704700001CB500F0B7FB07A138
:101C10004FF0FF33D1E90001CDE90001052269460B
:101C20000448FFF744FF00F07BFB1CBDFFAA03093B
:101C300000000000A80400201CB500F09FFB07A1D5
:101C40004FF0FF33D1E90001CDE9000105226946DB
:101C50000448FFF72CFF00F063FB1CBDFFAA020E37
:101C600002000000A80400207047704730B593B010
:101C700030216846FEF7DCFA14210CA8FEF7D8FAEA
:101C80001D480025016841F080510160006800F0A6
:101C9000805011901948016841F48041016000684A
:101CA000022400F480401190012000900004019073
:101CB0008001CDE9064008AA0420A82182E813008B
:101CC0000B906846FFF716FA08B172B6FEE70CA94A
:101CD0000F2081E831004FF4A0500F904FF4805056
:101CE000109005210CA8FFF7FBF8002801D072B670
:101CF000FEE713B030BD00004038024000700040E5
:101D00000248016841F470010160704788ED00E00D
:101D10000148FFF716BC0000F0040020F0B502688F
:101D2000274B284D284E294F294C4FF0804C984284
:101D300009D0604507D0A84205D0B04203D0B842D0
:101D400001D0A04204D122F0700E4A6842EA0E028D
:101D500098421BD0604519D0A84217D0B04215D088
:101D6000B84213D0A04211D01A4DA8420ED01A4D3D
:101D7000A8420BD0194DA84208D0194DA84205D051
:101D8000184DA84202D0184DA84203D122F4407544
:101D9000CA682A434D6922F080022A438D68C562D1
:101DA0000D688562984201D0A04201D109690163A2
:101DB000016841F004010160012141610260F0BD50
:101DC000000001400004004000080040000C0040FA
:101DD000000401400040014000440140004801402F
:101DE00000180040001C00400020004010B5806B2F
:101DF0000021C185FFF788FC10BD01680C3151E856
:101E0000002F22F4907241E80023002BF5D10168E5
:101E1000143151E8002F22F0010241E80023002B89
:101E2000F5D1016B012909D101680C3151E8002F6E
:101E300022F0100241E80023002BF5D1202180F888
:101E4000421000210163704708B590F84210222922
:101E500001D0022008BD82684FF480539A4201D11C
:101E6000016921B1816A9A421BD04AB10AE0026835
:101E7000816A5268C2F308020A80816A891C08E0FC
:101E8000026972B10268526802F07F020A70816AC8
:101E9000491C8162C18D491E0904090CC18503D00A
:101EA0001BE002685268F1E70168CA6822F020026C
:101EB000CA600168CA6822F48072CA6001684A690F
:101EC00022F001024A61202180F842100021416382
:101ED000026B012A03D0FFF7E9FD002008BD016372
:101EE00001680C3151E8002F22F0100241E8002374
:101EF000002BF5D101680A68D20602D50A68496844
:101F00000091818DFFF7EAFBE7E7000070B504461A
:101F100000680169E26821F44051114301612169BF
:101F2000A068E26908436169114308432168CA68EF
:101F300049F20C639A430243CA6020684169A2696E
:101F400021F440711143416131492068884202D037
:101F50003049884202D1FFF78DF801E0FFF77AF8A7
:101F6000E2690023192164253226B2F5004F626828
:101F700028D0A0FB0101930F9200FEF721F9014642
:101F8000B0FBF5F06FF01802504301EB800006EB58
:101F90000010B0FBF5F000F0F002B1FBF5F002EB41
:101FA0000012B1FBF5F06FF01803584301EB80000D
:101FB00006EB0010B0FBF5F000F00F0021681044B4
:101FC000886070BDA0FB010192185B41FEF7F8F834
:101FD0000146B0FBF5F00201B1FBF5F06FF018031C
:101FE000584301EB800006EBC000B0FBF5F000F0B9
:101FF000F80002EB4002B1FBF5F0584301EB800022
:1020000006EBC000B0FBF5F000F00700D6E70000DB
:10201000001001400014014081628285C2850021C8
:102020004164222180F84210016921B10168CA6827
:1020300042F48072CA6001684A6942F001024A6152
:102040000068C16841F02001C160002070472DE99F
:10205000F843984617460D460446089E24E0701C37
:1020600022D0FEF771FEA0EB0800B0421AD8CEB124
:102070002068C168490717D5802D15D0402D13D091
:102080000168C94309070FD4016800254068009022
:102090002046FFF7B2FE0820606484F8405001201B
:1020A000BDE8F8830320FBE72068006835EA0000FC
:1020B00004D00020B842D2D00020F1E70120F9E797
:1020C0000148FFF723BB0000A8040020FEE7090732
:1020D000090E002804DB00F1E02080F800147047AE
:1020E00000F00F0000F1E02080F8141D704700B5EB
:1020F0002DED048BB0EE409AF0EE609A83B051EC77
:10210000190BFEF705FA41EC180B18EE100A18EE41
:10211000901A8DED008B002818BF0120084320F095
:102120000040C0F17F6000F1E040C00F14D019EE14
:10213000101A19EE900A8DED009B002918BF01219D
:10214000084320F00040C0F17F6000F1E040C00F84
:1021500004BF012000F034F8B0EE480A03B0F0EEFE
:10216000680ABDEC048B00BD10B52DED028BB1EEFD
:10217000C08A18EE100A20F00040C0F1FF40C00FE6
:102180000AD010EE100A20F00040C0F1FF40C00F4E
:1021900004BF012000F014F8B0EE480ABDEC028B39
:1021A00010BD02E008C8121F08C1002AFAD170470A
:1021B0007047002001E001C1121F002AFBD17047C7
:1021C00001490860704700007400002070B586B0B7
:1021D000F0EE613A8DEC030A0D460646144603A95B
:1021E000F0EE431AB0EE621AF0EE420AB0EE630A65
:1021F000684600F027F89DED030A86ED000A9DED84
:10220000040A85ED000A9DED050A84ED000A06B07A
:1022100070BD0000FEF7A6FDFFF728FDFFF79AFC52
:10222000FFF7B6FCFFF7D0FC642204490448FFF72F
:102230002EFAFFF701FDFFF7E7FCFEE7780000202C
:10224000A804002070B50D462DED048BF0EE409AE9
:10225000B0EE609A29EEA90AF0EE418AB0EE618AEA
:10226000044609EE090A08EEA80A08EE080AFFF774
:102270007BFFF7EE000A294970EE600AF0EEE00AF3
:1022800010EE900A88420FDDF0EE690AC0EE809AE7
:10229000C9EE000AB0EE609AC8EE800AF0EE608ADD
:1022A000C8EE000AB0EE608AD4ED021AD4ED010A3D
:1022B00094ED002A21EEA80A22EE081A08EE600A20
:1022C00060EE890A09EE611A48EEC20A68EE001A49
:1022D00029EE013A68EEA02A49EE601A08EEC03AEB
:1022E00048EE412A49EE811A09EEA03A49EE802AC9
:1022F000B0EE000A02EE802A85ED002A94ED012A54
:1023000001EE802A85ED012A94ED021A03EE001AEF
:1023100085ED021ABDEC048B70BD0000BD3786351B
:102320001CB506A14FF0FF33D1E90001CDE9000152
:10233000052269460348FFF7BAFB1CBDFFAA00004F
:1023400000000000A804002000B58FB000208DEC34
:102350000D0A4FF0FF33382269468DF834008DF8AE
:10236000350080208DF836007F208DF83700024838
:10237000FFF79DFB0FB000BD600400201CB508A155
:102380004FF0FF33D1E90001CDE900010522694694
:102390000548FFF78CFBC820FEF7CCFB1CBD0000F6
:1023A000FFAA6988B5000000A80400200000000012
:1023B00000000000010203040607080900000000F5
:1023C00001020304E423000800000020780000005C
:1023D000A22100085C24000878000020E808000022
:1023E000B221000801000000100000000000000001
:1023F0000024F400000000000000000000000000C5
:1024000000000000000000000000000000000000CC
:1024100000000000000000000000000000000000BC
:1024200000000000000000000000000000000000AC
:1024300000000000000000000000803F00000000DD
:10244000000000000000000000000000000000008C
:0C24500000000000000000000000000080
:040000050800018965
:00000001FF
